{
  "contractName": "BennyBuilder",
  "abi": [
    {
      "inputs": [
        {
          "internalType": "uint256",
          "name": "",
          "type": "uint256"
        }
      ],
      "name": "bennies",
      "outputs": [
        {
          "internalType": "address",
          "name": "owner",
          "type": "address"
        }
      ],
      "stateMutability": "view",
      "type": "function",
      "constant": true
    },
    {
      "inputs": [
        {
          "internalType": "address",
          "name": "_owner",
          "type": "address"
        }
      ],
      "name": "createBenny",
      "outputs": [],
      "stateMutability": "nonpayable",
      "type": "function"
    }
  ],
  "bytecode": "0x60806040526103e860005534801561001657600080fd5b50610487806100266000396000f3fe608060405234801561001057600080fd5b50600436106100365760003560e01c80632652df6b1461003b578063c5a26d8114610057575b600080fd5b610055600480360381019061005091906102bf565b610087565b005b610071600480360381019061006c91906102e8565b6100ef565b60405161007e9190610320565b60405180910390f35b6000600260008373ffffffffffffffffffffffffffffffffffffffff1673ffffffffffffffffffffffffffffffffffffffff16815260200190815260200160002054146100d357600080fd5b6103e8600054106100e357600080fd5b6100ec81610139565b50565b600381815481106100ff57600080fd5b906000526020600020016000915090508060000160009054906101000a900473ffffffffffffffffffffffffffffffffffffffff16905081565b600060405180602001604052808373ffffffffffffffffffffffffffffffffffffffff1681525090506003819080600181540180825580915050600190039060005260206000200160009091909190915060008201518160000160006101000a81548173ffffffffffffffffffffffffffffffffffffffff021916908373ffffffffffffffffffffffffffffffffffffffff1602179055505050600060016003805490506101e7919061033b565b9050826001600083815260200190815260200160002060006101000a81548173ffffffffffffffffffffffffffffffffffffffff021916908373ffffffffffffffffffffffffffffffffffffffff160217905550600260008473ffffffffffffffffffffffffffffffffffffffff1673ffffffffffffffffffffffffffffffffffffffff168152602001908152602001600020600081548092919061028b906103ab565b9190505550505050565b6000813590506102a481610423565b92915050565b6000813590506102b98161043a565b92915050565b6000602082840312156102d157600080fd5b60006102df84828501610295565b91505092915050565b6000602082840312156102fa57600080fd5b6000610308848285016102aa565b91505092915050565b61031a8161036f565b82525050565b60006020820190506103356000830184610311565b92915050565b6000610346826103a1565b9150610351836103a1565b925082821015610364576103636103f4565b5b828203905092915050565b600061037a82610381565b9050919050565b600073ffffffffffffffffffffffffffffffffffffffff82169050919050565b6000819050919050565b60006103b6826103a1565b91507fffffffffffffffffffffffffffffffffffffffffffffffffffffffffffffffff8214156103e9576103e86103f4565b5b600182019050919050565b7f4e487b7100000000000000000000000000000000000000000000000000000000600052601160045260246000fd5b61042c8161036f565b811461043757600080fd5b50565b610443816103a1565b811461044e57600080fd5b5056fea264697066735822122076edb43787e626176102fabda43cd874033e515eedfe7539da34f135e6a16cb964736f6c63430008000033",
  "immutableReferences": {},
  "source": "pragma solidity >=0.5.0 < 0.9.0;\n\nimport \"./SafeMath.sol\";\n//using SafeMath for add;\n\ncontract BennyBuilder {\n\n    uint maxBennies = 1000;\n    mapping (uint => address) idToOwner;\n    mapping (address => uint) addressToBennies;\n    struct Benny {\n        address owner;\n    }\n\n    Benny[] public bennies;\n\n    function _createBenny(address _owner) internal {\n        Benny memory newBenny = Benny(_owner);\n        bennies.push(newBenny);\n        uint id = bennies.length - 1;\n        idToOwner[id] = _owner;\n        addressToBennies[_owner]++;\n        //addressToBennies[_owner] = addressToBennies.add(1);\n    }\n\n    function createBenny(address _owner) public {\n        require(addressToBennies[_owner] == 0);\n        require(maxBennies < 1000);\n        _createBenny(_owner);\n    }\n}\n\n\n",
  "sourcePath": "/Users/evil_computer/CryptoBennies/contracts/BennyBuilder.sol",
  "compiler": {
    "name": "solc",
    "version": "0.8.0+commit.c7dfd78e.Emscripten.clang"
  },
  "schemaVersion": "3.4.1",
  "updatedAt": "2021-09-08T20:16:49.198Z",
  "networkType": "ethereum",
  "devdoc": {
    "kind": "dev",
    "methods": {},
    "version": 1
  },
  "userdoc": {
    "kind": "user",
    "methods": {},
    "version": 1
  }
}