{
  "contractName": "BennyBuilder",
  "abi": [
    {
      "inputs": [
        {
          "internalType": "uint256",
          "name": "",
          "type": "uint256"
        }
      ],
      "name": "bennies",
      "outputs": [
        {
          "internalType": "address",
          "name": "owner",
          "type": "address"
        }
      ],
      "stateMutability": "view",
      "type": "function"
    },
    {
      "inputs": [
        {
          "internalType": "address",
          "name": "_owner",
          "type": "address"
        }
      ],
      "name": "createBenny",
      "outputs": [],
      "stateMutability": "nonpayable",
      "type": "function"
    }
  ],
  "bytecode": "0x60806040526103e860005534801561001657600080fd5b5061052f806100266000396000f3fe608060405234801561001057600080fd5b50600436106100365760003560e01c80632652df6b1461003b578063c5a26d8114610057575b600080fd5b6100556004803603810190610050919061035a565b610087565b005b610071600480360381019061006c9190610383565b6100ef565b60405161007e91906103bb565b60405180910390f35b6000600360008373ffffffffffffffffffffffffffffffffffffffff1673ffffffffffffffffffffffffffffffffffffffff16815260200190815260200160002054146100d357600080fd5b6103e8600054106100e357600080fd5b6100ec81610139565b50565b600481815481106100ff57600080fd5b906000526020600020016000915090508060000160009054906101000a900473ffffffffffffffffffffffffffffffffffffffff16905081565b600060405180602001604052808373ffffffffffffffffffffffffffffffffffffffff1681525090506004819080600181540180825580915050600190039060005260206000200160009091909190915060008201518160000160006101000a81548173ffffffffffffffffffffffffffffffffffffffff021916908373ffffffffffffffffffffffffffffffffffffffff1602179055505050600060016004805490506101e7919061042c565b9050826001600083815260200190815260200160002060006101000a81548173ffffffffffffffffffffffffffffffffffffffff021916908373ffffffffffffffffffffffffffffffffffffffff16021790555080600260008573ffffffffffffffffffffffffffffffffffffffff1673ffffffffffffffffffffffffffffffffffffffff168152602001908152602001600020819055506102d26001600360008673ffffffffffffffffffffffffffffffffffffffff1673ffffffffffffffffffffffffffffffffffffffff1681526020019081526020016000205461031a90919063ffffffff16565b600360008573ffffffffffffffffffffffffffffffffffffffff1673ffffffffffffffffffffffffffffffffffffffff16815260200190815260200160002081905550505050565b6000818361032891906103d6565b905092915050565b60008135905061033f816104cb565b92915050565b600081359050610354816104e2565b92915050565b60006020828403121561036c57600080fd5b600061037a84828501610330565b91505092915050565b60006020828403121561039557600080fd5b60006103a384828501610345565b91505092915050565b6103b581610460565b82525050565b60006020820190506103d060008301846103ac565b92915050565b60006103e182610492565b91506103ec83610492565b9250827fffffffffffffffffffffffffffffffffffffffffffffffffffffffffffffffff038211156104215761042061049c565b5b828201905092915050565b600061043782610492565b915061044283610492565b9250828210156104555761045461049c565b5b828203905092915050565b600061046b82610472565b9050919050565b600073ffffffffffffffffffffffffffffffffffffffff82169050919050565b6000819050919050565b7f4e487b7100000000000000000000000000000000000000000000000000000000600052601160045260246000fd5b6104d481610460565b81146104df57600080fd5b50565b6104eb81610492565b81146104f657600080fd5b5056fea26469706673582212209ffaddb1e3be6d85718365fcbfb25af8416f64a75624359139ecd54fd545c17564736f6c63430008000033",
  "immutableReferences": {},
  "source": "pragma solidity >=0.5.0 < 0.9.0;\n\nimport \"./SafeMath.sol\";\n\ncontract BennyBuilder {\n    using SafeMath for uint256;\n    uint maxBennies = 1000;\n    mapping (uint => address) idToOwner;\n    mapping (address => uint) addressToId;\n    mapping (address => uint) addressToBennies;\n    struct Benny {\n        address owner;\n    }\n\n    Benny[] public bennies;\n\n    function _createBenny(address _owner) internal {\n        Benny memory newBenny = Benny(_owner);\n        bennies.push(newBenny);\n        uint id = bennies.length - 1;\n        idToOwner[id] = _owner;\n        addressToId[_owner] = id;\n        addressToBennies[_owner] = addressToBennies[_owner].add(1);\n    }\n\n    function createBenny(address _owner) public {\n        require(addressToBennies[_owner] == 0);\n        require(maxBennies < 1000);\n        _createBenny(_owner);\n    }\n}\n\n\n",
  "sourcePath": "/Users/evil_computer/CryptoBennies/contracts/BennyBuilder.sol",
  "compiler": {
    "name": "solc",
    "version": "0.8.0+commit.c7dfd78e.Emscripten.clang"
  },
  "schemaVersion": "3.4.1",
  "updatedAt": "2021-09-08T21:29:32.624Z",
  "devdoc": {
    "kind": "dev",
    "methods": {},
    "version": 1
  },
  "userdoc": {
    "kind": "user",
    "methods": {},
    "version": 1
  }
}